{
  "_format": "hh-sol-artifact-1",
  "contractName": "InsuranceUnderwriting",
  "sourceName": "contracts/Insurance.sol",
  "abi": [
    {
      "inputs": [
        {
          "internalType": "address",
          "name": "_verifier",
          "type": "address"
        }
      ],
      "stateMutability": "nonpayable",
      "type": "constructor"
    },
    {
      "inputs": [
        {
          "internalType": "address",
          "name": "owner",
          "type": "address"
        }
      ],
      "name": "OwnableInvalidOwner",
      "type": "error"
    },
    {
      "inputs": [
        {
          "internalType": "address",
          "name": "account",
          "type": "address"
        }
      ],
      "name": "OwnableUnauthorizedAccount",
      "type": "error"
    },
    {
      "anonymous": false,
      "inputs": [
        {
          "indexed": true,
          "internalType": "address",
          "name": "driver",
          "type": "address"
        },
        {
          "indexed": false,
          "internalType": "uint256",
          "name": "premium",
          "type": "uint256"
        }
      ],
      "name": "DriverInsured",
      "type": "event"
    },
    {
      "anonymous": false,
      "inputs": [
        {
          "indexed": true,
          "internalType": "address",
          "name": "previousOwner",
          "type": "address"
        },
        {
          "indexed": true,
          "internalType": "address",
          "name": "newOwner",
          "type": "address"
        }
      ],
      "name": "OwnershipTransferred",
      "type": "event"
    },
    {
      "inputs": [
        {
          "internalType": "address",
          "name": "driver",
          "type": "address"
        }
      ],
      "name": "checkInsurance",
      "outputs": [
        {
          "internalType": "bool",
          "name": "",
          "type": "bool"
        }
      ],
      "stateMutability": "view",
      "type": "function"
    },
    {
      "inputs": [
        {
          "internalType": "address",
          "name": "",
          "type": "address"
        }
      ],
      "name": "insuredDrivers",
      "outputs": [
        {
          "internalType": "bool",
          "name": "",
          "type": "bool"
        }
      ],
      "stateMutability": "view",
      "type": "function"
    },
    {
      "inputs": [],
      "name": "owner",
      "outputs": [
        {
          "internalType": "address",
          "name": "",
          "type": "address"
        }
      ],
      "stateMutability": "view",
      "type": "function"
    },
    {
      "inputs": [],
      "name": "premiumBaseRate",
      "outputs": [
        {
          "internalType": "uint256",
          "name": "",
          "type": "uint256"
        }
      ],
      "stateMutability": "view",
      "type": "function"
    },
    {
      "inputs": [],
      "name": "renounceOwnership",
      "outputs": [],
      "stateMutability": "nonpayable",
      "type": "function"
    },
    {
      "inputs": [
        {
          "internalType": "uint256[24]",
          "name": "proof",
          "type": "uint256[24]"
        },
        {
          "internalType": "uint256[1]",
          "name": "publicSignals",
          "type": "uint256[1]"
        }
      ],
      "name": "submitProof",
      "outputs": [],
      "stateMutability": "nonpayable",
      "type": "function"
    },
    {
      "inputs": [
        {
          "internalType": "address",
          "name": "newOwner",
          "type": "address"
        }
      ],
      "name": "transferOwnership",
      "outputs": [],
      "stateMutability": "nonpayable",
      "type": "function"
    },
    {
      "inputs": [],
      "name": "verifier",
      "outputs": [
        {
          "internalType": "contract PlonkVerifier",
          "name": "",
          "type": "address"
        }
      ],
      "stateMutability": "view",
      "type": "function"
    }
  ],
  "bytecode": "0x60806040526103e860035534801561001657600080fd5b50604051610cf0380380610cf083398181016040528101906100389190610229565b33600073ffffffffffffffffffffffffffffffffffffffff168173ffffffffffffffffffffffffffffffffffffffff16036100ab5760006040517f1e4fbdf70000000000000000000000000000000000000000000000000000000081526004016100a29190610265565b60405180910390fd5b6100ba8161010260201b60201c565b5080600160006101000a81548173ffffffffffffffffffffffffffffffffffffffff021916908373ffffffffffffffffffffffffffffffffffffffff16021790555050610280565b60008060009054906101000a900473ffffffffffffffffffffffffffffffffffffffff169050816000806101000a81548173ffffffffffffffffffffffffffffffffffffffff021916908373ffffffffffffffffffffffffffffffffffffffff1602179055508173ffffffffffffffffffffffffffffffffffffffff168173ffffffffffffffffffffffffffffffffffffffff167f8be0079c531659141344cd1fd0a4f28419497f9722a3daafe3b4186f6b6457e060405160405180910390a35050565b600080fd5b600073ffffffffffffffffffffffffffffffffffffffff82169050919050565b60006101f6826101cb565b9050919050565b610206816101eb565b811461021157600080fd5b50565b600081519050610223816101fd565b92915050565b60006020828403121561023f5761023e6101c6565b5b600061024d84828501610214565b91505092915050565b61025f816101eb565b82525050565b600060208201905061027a6000830184610256565b92915050565b610a618061028f6000396000f3fe608060405234801561001057600080fd5b50600436106100885760003560e01c8063bb215ef11161005b578063bb215ef1146100ef578063bd11f0881461011f578063e340847f1461014f578063f2fde38b1461016d57610088565b80632b7ac3f31461008d5780636641be15146100ab578063715018a6146100c75780638da5cb5b146100d1575b600080fd5b610095610189565b6040516100a291906106bb565b60405180910390f35b6100c560048036038101906100c09190610724565b6101af565b005b6100cf6103aa565b005b6100d96103be565b6040516100e69190610787565b60405180910390f35b610109600480360381019061010491906107ce565b6103e7565b6040516101169190610816565b60405180910390f35b610139600480360381019061013491906107ce565b61043d565b6040516101469190610816565b60405180910390f35b61015761045d565b604051610164919061084a565b60405180910390f35b610187600480360381019061018291906107ce565b610463565b005b600160009054906101000a900473ffffffffffffffffffffffffffffffffffffffff1681565b6000600160009054906101000a900473ffffffffffffffffffffffffffffffffffffffff1673ffffffffffffffffffffffffffffffffffffffff1663ff7240a784846040518363ffffffff1660e01b815260040161020e92919061088f565b602060405180830381865afa15801561022b573d6000803e3d6000fd5b505050506040513d601f19601f8201168201806040525081019061024f91906108e6565b905080610291576040517f08c379a000000000000000000000000000000000000000000000000000000000815260040161028890610970565b60405180910390fd5b6000826000600181106102a7576102a6610990565b5b6020020135905060018103610369576001600260003373ffffffffffffffffffffffffffffffffffffffff1673ffffffffffffffffffffffffffffffffffffffff16815260200190815260200160002060006101000a81548160ff021916908315150217905550600060035490503373ffffffffffffffffffffffffffffffffffffffff167ffeb46f0db42c31539c24803dcd12b4b3fd760dd498b9ef9ed3e2c0f9bf17ad298260405161035b919061084a565b60405180910390a2506103a4565b6040517f08c379a000000000000000000000000000000000000000000000000000000000815260040161039b90610a0b565b60405180910390fd5b50505050565b6103b26104e9565b6103bc6000610570565b565b60008060009054906101000a900473ffffffffffffffffffffffffffffffffffffffff16905090565b6000600260008373ffffffffffffffffffffffffffffffffffffffff1673ffffffffffffffffffffffffffffffffffffffff16815260200190815260200160002060009054906101000a900460ff169050919050565b60026020528060005260406000206000915054906101000a900460ff1681565b60035481565b61046b6104e9565b600073ffffffffffffffffffffffffffffffffffffffff168173ffffffffffffffffffffffffffffffffffffffff16036104dd5760006040517f1e4fbdf70000000000000000000000000000000000000000000000000000000081526004016104d49190610787565b60405180910390fd5b6104e681610570565b50565b6104f1610634565b73ffffffffffffffffffffffffffffffffffffffff1661050f6103be565b73ffffffffffffffffffffffffffffffffffffffff161461056e57610532610634565b6040517f118cdaa70000000000000000000000000000000000000000000000000000000081526004016105659190610787565b60405180910390fd5b565b60008060009054906101000a900473ffffffffffffffffffffffffffffffffffffffff169050816000806101000a81548173ffffffffffffffffffffffffffffffffffffffff021916908373ffffffffffffffffffffffffffffffffffffffff1602179055508173ffffffffffffffffffffffffffffffffffffffff168173ffffffffffffffffffffffffffffffffffffffff167f8be0079c531659141344cd1fd0a4f28419497f9722a3daafe3b4186f6b6457e060405160405180910390a35050565b600033905090565b600073ffffffffffffffffffffffffffffffffffffffff82169050919050565b6000819050919050565b600061068161067c6106778461063c565b61065c565b61063c565b9050919050565b600061069382610666565b9050919050565b60006106a582610688565b9050919050565b6106b58161069a565b82525050565b60006020820190506106d060008301846106ac565b92915050565b600080fd5b600080fd5b6000819050826020601802820111156106fc576106fb6106db565b5b92915050565b60008190508260206001028201111561071e5761071d6106db565b5b92915050565b600080610320838503121561073c5761073b6106d6565b5b600061074a858286016106e0565b92505061030061075c85828601610702565b9150509250929050565b60006107718261063c565b9050919050565b61078181610766565b82525050565b600060208201905061079c6000830184610778565b92915050565b6107ab81610766565b81146107b657600080fd5b50565b6000813590506107c8816107a2565b92915050565b6000602082840312156107e4576107e36106d6565b5b60006107f2848285016107b9565b91505092915050565b60008115159050919050565b610810816107fb565b82525050565b600060208201905061082b6000830184610807565b92915050565b6000819050919050565b61084481610831565b82525050565b600060208201905061085f600083018461083b565b92915050565b82818337505050565b61087b6103008383610865565b5050565b61088b60208383610865565b5050565b6000610320820190506108a5600083018561086e565b6108b361030083018461087f565b9392505050565b6108c3816107fb565b81146108ce57600080fd5b50565b6000815190506108e0816108ba565b92915050565b6000602082840312156108fc576108fb6106d6565b5b600061090a848285016108d1565b91505092915050565b600082825260208201905092915050565b7f496e76616c69642070726f6f6600000000000000000000000000000000000000600082015250565b600061095a600d83610913565b915061096582610924565b602082019050919050565b600060208201905081810360008301526109898161094d565b9050919050565b7f4e487b7100000000000000000000000000000000000000000000000000000000600052603260045260246000fd5b7f4472697665722065786365656473207370656564207468726573686f6c640000600082015250565b60006109f5601e83610913565b9150610a00826109bf565b602082019050919050565b60006020820190508181036000830152610a24816109e8565b905091905056fea2646970667358221220be7adadf88ac7ff2aa2ed7958f8e66be7923cc7440d6ec52ac1838ac8372a5a964736f6c634300081c0033",
  "linkReferences": {},
  "deployedLinkReferences": {}
}